:0400000034EF13F0D6
:1000080000C015F0F2A433D0D59EA10ED66E5F5075
:10001800000A14E00001A94BAA2BAA516A5D02E16B
:10002800A951695D02E3818001D081906C51AA5D7C
:1000380002E16B51A95D02E3A96BAA6B000185512E
:10004800000A13E09F4BA02BA051805D02E19F5155
:100058007F5D02E3818201D081927E51A05D02E141
:100068007D519F5D02E39F6BA06BF294D58E9EA09D
:100078000BD0D10ECF6E200ECE6E010E2826000EAC
:0E00880029222A222B229E9015C000F0110082
:100096000B820BAE55EF00F003680268016800683A
:0800A6000A360232FF0E1200BF
:0E00AE00026A016A006A086A036A000E120004
:1000BC000B840BAE69EF00F0010E036E026A016A4D
:0A00CC00006A0A360232FF0E12002D
:0800D6000AAE029E000E1200AA
:1000DE000CB0B1EF00F00CA257EF01F00E6A000E5B
:1000EE000264C8EF00F0F00E0214D8A493EF00F0F3
:1000FE00023A01380F0B02260138F00B016E003860
:10010E000F0B01260038F00B006E08380F0B00267F
:10011E000838F00B086E0E84D89002BEACEF00F0DB
:10012E0008360036013602360E2A02BEACEF00F05B
:10013E0008360036013602360E2A02BEACEF00F04B
:10014E0008360036013602360E2A0E5003644DEF85
:10015E0001F0035E0BBC08AE52EF01F0D880800EAA
:10016E0008640030000E002201220222D8A052EFB5
:10017E0001F0023201320032034A57EF01F052EF22
:10018E0001F001C002F000C001F008C000F0086AE2
:10019E00000E0E860264FFEF00F0F00E0214D8A4DB
:1001AE00E7EF00F0023A01380F0B02260138F00B90
:1001BE00016E00380F0B01260038F00B006E0E8416
:1001CE00D89002BEACEF00F00036013602360E2A91
:1001DE0002BEACEF00F00036013602360E2A02BE29
:1001EE00ACEF00F00036013602360E2AACEF00F00E
:1001FE0001C002F000C001F0006A000E0E960E88DB
:10020E0002642CEF01F0F00E0214D8A417EF01F0E7
:10021E00023A01380F0B02260138F00B016E0E84E4
:10022E00D89002BEACEF00F0013602360E2A02BEA6
:10023E00ACEF00F0013602360E2A02BEACEF00F033
:10024E00013602360E2AACEF00F001C002F0016A50
:10025E00000E0E8602645CEF01F0F00E0214D8A4BC
:10026E003BEF01F0023A0E84D89002BEACEF00F0E4
:10027E0002360E2A02BEACEF00F002360E2A02BE85
:10028E00ACEF00F002360E2AACEF00F0010E0C6E51
:10029E000EDF5FEF01F0020E0C6E16DF5FEF01F066
:1002AE00040E0C6EF1DE5FEF01F0080E0C6EF8DE40
:0202BE0012002C
:1002C0000B800BAE6CEF01F0026A0AAEFF0E026EFD
:0C02D000016E006E0A360232FF0E1200B2
:1002DC00025006180E6E086A096A0B6A035007640E
:1002EC0061EF02F006500A6E068E028E03500B6E02
:1002FC000750036E000E0B64B1EF01F00B50075E5C
:10030C00D8B452EF02F0070E076420EF02F0075E3C
:10031C0000C008F001C000F002C001F0026A074EF4
:10032C0052EF02F00764F5EF01F0075E00C008F031
:10033C0001C000F0016A074E52EF02F00764D3EFE0
:10034C0001F0075E00C008F0006A074E52EF02F0A1
:10035C000764BAEF01F00AC002F005C001F004C056
:10036C0000F0086A7BEF03F0030E0764C5EF01F0A1
:10037C00075E08380F0B086E074E52EF02F0D8904C
:10038C000832074E52EF02F0D8900832074E52EF67
:10039C0002F0D890083252EF02F0030E0764E4EF3B
:1003AC0001F0075E08380F0B086E0038F00B0826BA
:1003BC0000380F0B006E074E52EF02F0D89000324F
:1003CC000832074E52EF02F0D89000320832074E36
:1003DC0052EF02F0D8900032083252EF02F0030EC6
:1003EC0007640CEF02F0075E08380F0B086E00383C
:1003FC00F00B082600380F0B006E0138F00B0026AE
:10040C0001380F0B016E074E52EF02F0D8900132FB
:10041C0000320832074E52EF02F0D890013200320F
:10042C000832074E52EF02F0D890013200320832F7
:10043C0052EF02F0030E07643DEF02F0075E08383E
:10044C000F0B086E0038F00B082600380F0B006EEF
:10045C000138F00B002601380F0B016E0238F00B3F
:10046C00012602380F0B026E074E52EF02F0D890A5
:10047C000232013200320832074E52EF02F0D890AD
:10048C000232013200320832074E52EF02F0D8909D
:10049C000232013200320832096A000E0EAE46EF0B
:1004AC0003F0081E001E011E021E082A0022012253
:1004BC00022246EF03F00750D8A467EF02F07BEF5F
:1004CC0003F0096A02C00AF0028E068E0750035C24
:1004DC00076ED8B439EF03F0070E076407EF03F08B
:1004EC00075E0450096E0550046E0650056E066AD0
:1004FC00074E39EF03F0070E0764DCEF02F0075EDE
:10050C000450096E0550046E056A074E39EF03F06E
:10051C00070E0764BAEF02F0075E0450096E046A16
:10052C00074E39EF03F0070E0764A1EF02F00AC083
:10053C0002F07BEF03F0030E0764ACEF02F0075EF2
:10054C0009380F0B096E074E39EF03F0D8900932BA
:10055C00074E39EF03F0D8900932074E39EF03F00C
:10056C00D890093239EF03F0030E0764CBEF02F099
:10057C00075E09380F0B096E0438F00B0926043896
:10058C000F0B046E074E39EF03F0D890043209328A
:10059C00074E39EF03F0D89004320932074E39EF89
:1005AC0003F0D8900432093239EF03F0030E0764DC
:1005BC00F3EF02F0075E09380F0B096E0438F00BED
:1005CC00092604380F0B046E0538F00B0426053889
:1005DC000F0B056E074E39EF03F0D890053204323D
:1005EC000932074E39EF03F0D89005320432093244
:1005FC00074E39EF03F0D89005320432093239EF47
:10060C0003F0030E076424EF03F0075E09380F0BA9
:10061C00096E0438F00B092604380F0B046E0538EC
:10062C00F00B042605380F0B056E0638F00B05266B
:10063C0006380F0B066E074E39EF03F0D8900632D2
:10064C00053204320932074E39EF03F0D8900632E6
:10065C00053204320932074E39EF03F0D8900632D6
:10066C00053204320932086A000E0EAE46EF03F072
:10067C00091E041E051E061E092A04220522062236
:10068C00095008260450002205500122065002226F
:10069C000EBE5DEF03F0D8A06CEF03F00232013216
:1006AC0000320832033E6CEF03F076EF03F0D8B063
:1006BC0071EF03F0000E081E001E011E021E082A18
:1006CC000022012202220A7E71EF03F0010E0C6E51
:1006DC0000DD7DEF03F0020E0C6EFBDC7DEF03F012
:1006EC00040E0C6ED2DC7DEF03F0000E0C6E1200CB
:1006FC000B6A0C6A086A0350D8B402EF04F002C00B
:10070C000AF0028E9E0E035E03AEF2EF03F0036C52
:10071C00080E035CD8A0BFEF03F0036E083600C0D0
:10072C0008F001C000F002C001F0026A080E035C80
:10073C00D8A0BFEF03F0036E083600C008F001C06C
:10074C0000F0016A080E035CD8A0BFEF03F0036E43
:10075C00083600C008F0006A080E035CD8A0BFEF92
:10076C0003F0036E0836086A0350D8A4D890CBEF78
:10077C0003F00350D8B4CBEF03F0D890023201321F
:10078C0000320832032EC3EF03F00BBC08A0DCEFE1
:10079C0003F0D8A0DCEF03F0082AD8B4002AD8B4B0
:1007AC00012AD8B4022A02BE06EF04F00AAE02EF08
:1007BC0004F0021E011E001E081E082AD8B4002ACE
:1007CC00D8B4012AD8B4022A02EF04F0026A016AF2
:1007DC00006A086A02EF04F00B800BAE0CEF04F019
:1007EC00026A0AAE0CEF04F0026E016E006E086E27
:1007FC000A3602320CEF04F00C6A000E0DEF04F016
:10080C00010E0C6E000E56DD0DEF04F0FF0E0250C3
:10081C00036E0150026E0050016E0850006E120003
:08082C000B6A0B86FF0E12009F
:06083400067E52DD1200F9
:10083A000050086E0150006E0250016E0350026EA5
:10084A00036A0B6A0C6A9E0E036E0A6A02AE3AEFDC
:10085A0004F0081E001E011E021E082AD8B4002A2F
:10086A00D8B4012AD8B4022A0A8E020E0C6E32DCDF
:02087A0012006A
:10087C000C6A0E6A0250D8A457EF04F001C002F0C3
:10088C0000C001F0006A0E860250D8A457EF04F0A5
:10089C0001C002F0016A0E960E880250D8B469EFBE
:1008AC0004F00E50035ED8A4D8A06FEF04F0D890DB
:1008BC0002BE75EF04F0003601360236032E5EEFF1
:1008CC0004F06FEF04F0010E0C6E57EC00F079EFB2
:1008DC0004F0020E0C6E5EEC00F079EF04F0040EE6
:0808EC000C6E6BEC00F0120031
:1008F400086A096A000E07620364FFEF04F00250FD
:1009040006180A6E075003267E0ED8A090EF04F056
:10091400035ED8B004EF05F094EF04F0035ED8A0B2
:1009240009EF05F0028E068E02C00EF001C00BF036
:1009340000C00DF000500402F4CF0CF00150050289
:10094400F4CF00F0F3CF08F00402F3500C26F45077
:100954000822000E00220D500502F3500C26F4501C
:100964000822000E002202500402F3500826F4501C
:10097400002202500502016A000E0122F3500026F3
:10098400F45001220D500602F3500826F4500022C0
:10099400026A000E012202220B500602F3500026C6
:1009A400F4500122000E02220E500602F3500126DA
:1009B400F450022202BEE7EF04F008360036013696
:1009C40002360306D8B409EF05F0FAEF04F0D88034
:1009D400800E08640030000E002201220222D8A0FA
:1009E400FAEF04F0023201320032034A04EF05F058
:1009F4000AAE029E000E0CEF05F0010E57EC00F05B
:100A04000CEF05F0020E4BEC00F00CEF05F0040EB9
:060A14005EEC00F0120090
:100A1A000A6A0350D8A40A800750D8A40A820A5046
:100A2A00D8B470EF05F0030AD8B429EF05F00AB07C
:100A3A0024EF05F006AE6EEF05F06CEF05F002AE9E
:100A4A006CEF05F06EEF05F00250800B0A6E029E05
:100A5A000650800B069E0A18D8B43AEF05F00A50E1
:100A6A00D8B46CEF05F06EEF05F00750035CD8B40C
:100A7A0044EF05F0D8A060EF05F066EF05F00650E8
:100A8A00025CD8B44EEF05F0D8A060EF05F066EF2F
:100A9A0005F00550015CD8B458EF05F0D8A060EF16
:100AAA0005F066EF05F00450005CD8B470EF05F06D
:100ABA00D8B066EF05F00A52D8B46EEF05F06CEFC5
:100ACA0005F00A52D8B46CEF05F06EEF05F0D88045
:0E0ADA001200D8901200D880D88412001200AA
:100AE80000C008F00150006E016A026A036A0B6ACE
:100AF8000C6A016A026A036A960E036E0A6A00AEFD
:100B08008CEF05F0081E001E082AD8B4002A0A8EA9
:100B180000C001F008C000F0086A026AABDE1200EB
:100B280004C100F0016A026A036AFF0E0016000E93
:100B3800011600C009F101C00AF17F0E005C026EC7
:100B4800000E0158036E02C009F103C00AF1800EBD
:100B58000318006E800E005C02E1000E025C21E2C8
:100B6800046A056A066A076A01C100F002C101F059
:100B780003C102F004C103F04CDF010ED8B0000E2F
:100B8800006E005209E0000E006E000E016E800E2D
:100B9800026E7F0E036E58D0006A016A026A036A09
:100BA80053D001010A51000802E10951180809E26D
:100BB80001C100F002C101F003C102F004C103F059
:100BC80043D001C100F002C101F003C102F004C129
:100BD80003F090DD2EDE00C005F101C006F102C071
:100BE80007F103C008F100C004F001C005F002C01D
:100BF80006F003C007F001C100F002C101F003C113
:100C080002F004C103F005DF010ED8B0000E006E3B
:100C1800005212E0000E046E000E056E000E066E05
:100C28007F0E076E05C100F006C101F007C102F092
:100C380008C103F0FBDD08D005C100F006C101F0D2
:0A0C480007C102F008C103F012001A
:100C520003500718D8A43DEF06F002500618D8A496
:100C62003DEF06F001500518D8A43DEF06F0005004
:0E0C72000418D8B4D8841200D89412001200CE
:100C800008C100F009C101F0000E010109BFFF0E0B
:100C9000026E036E003600900136023603360036CF
:100CA000009001360236033605510024F66E0651D7
:100CB0000120F76E07510220F86E0900F5CF0AF106
:100CC0000900F5CF0BF10900F5CF0CF10900F5CFC4
:100CD0000DF10851091148E001C100F002C101F015
:100CE00003C102F004C103F00AC104F00BC105F016
:100CF0000CC106F00DC107F0FDDD010E085F000E0E
:100D0000095B08C104F009C105F0000E09BFFF0E20
:100D1000066E076E0436049005360636073604362E
:100D2000049005360636073605510424F66E065142
:100D30000520F76E07510620F86E0900F5CF04F084
:100D40000900F5CF05F00900F5CF06F00900F5CF51
:100D500007F06EEC01F000C00AF101C00BF102C017
:100D60000CF103C00DF1B5D70AC100F00BC101F0C1
:0A0D70000CC102F00DC103F01200E7
:0E0D7A00ACB202D00000FCD700C1ADFF1200E9
:100D8800010E046E010E056E030E0424E96E000EBA
:100D98000520EA6E7E0EEE5C006E016A000E015AB6
:100DA80005C1E1FF06C1E2FF00C0E6FF01C0E6FFA2
:100DB800030E0424E16E000E0520E26E7E0EE66E40
:100DC80001C100F002C101F003C102F004C103F047
:020DD800120007
:100DDA000450000A12E10550000A0FE10650000A09
:100DEA000CE10750000A09E1FF0E006EFF0E016ECA
:100DFA007F0E026EFF0E036EA7D0086A096A0750BB
:100E0A00D8B498EF07F00350D8B49CEF07F002501B
:100E1A0006180A6E028E068E0E6A02C008F001C01B
:100E2A000CF000C00DF004500D5E0550D8A0053C32
:100E3A000C5E0650D8A0063C085E086A0C6A0D6A69
:100E4A00D8A02FEF07F0D8900232013200320832D0
:100E5A00010E0E6E0750035ED8A03CEF07F07E0E1F
:100E6A000E240326D8B0A1EF07F042EF07F07E0E5A
:100E7A000E240326D8A0A6EF07F0180E0B6E0D3627
:100E8A000C3608360036013602360E360450005E3D
:100E9A000550D8A0053C015E0650D8A0063C025E6B
:100EAA0006340E120EA05DEF07F00D8068EF07F012
:100EBA00045000260550D8B0053C01260650D8B08B
:100ECA00062802260D900B2E44EF07F08EEF07F04E
:100EDA00D8900036013602360E360450005E0550B0
:100EEA00D8A0053C015E0650D8A0063C025E063436
:100EFA000E10010B0D26D8B00C2AD8B4082AD8A493
:100F0A008EEF07F008320C320D32032AD8B4A1EF63
:100F1A0007F00AAE089E0850026E0C50016E0D5082
:100F2A00006EA9EF07F0010E7CDCA9EF07F0020EB4
:100F3A0057EC00F0A9EF07F0040E4BEC00F0A9EF14
:0A0F4A0007F0080E5EEC00F0120044
:100F54000FEE83F0EF50EFCF00F0009E00C0EFFFE4
:020F6400120079
:100F66000FEE83F0EF50EFCF00F0009C00C0EFFFD4
:020F7600120067
:100F7800010E0101076F010E086F030E0725D96ED8
:100F8800000E0821DA6EDE500525016E000E0621DE
:100F9800026E01C005F102C006F1800E0218006E53
:100FA800800E005C02E1000E015C05E2006A016A45
:100FB800026A036A3ED0800E006E800E0619005C3D
:100FC80002E10551FF0825E2046A056A066A076A14
:100FD80001C100F002C101F003C102F004C103F035
:100FE80018DD010ED8B0000E006E005209E0FF0EA9
:100FF800006EFF0E016EFF0E026EFF0E036E19D01B
:10100800FF0E006EFF0E016E7F0E026EFF0E036E66
:1010180010D0030E0725E16E000E0821E26E05C10F
:10102800E6FF01C100F002C101F003C102F004C1F2
:0410380003F01200AF
:0E103C00030E0D6E0D2EFED7000000001200F8
:10104A000B6A0350D8B46BEF08F002500A6E028E96
:10105A008E0E035E03AE6FEF08F0036C080E035C9E
:10106A00D8A04AEF08F0036E013602C001F0026A06
:10107A00080E035CD8A04AEF08F0036E0136016A35
:10108A000350D8A4D89054EF08F00350D8B454EFC2
:10109A0008F0D89002320132032E4EEF08F00BBC52
:1010AA0001A061EF08F0D8A061EF08F0012AD8B4D6
:1010BA00022A02BE7EEF08F00AAE84EF08F0021E92
:1010CA00011E012AD8B4022A84EF08F0026A016AD2
:1010DA0084EF08F00B800BAE88EF08F0026A0AAEC4
:1010EA0088EF08F0FF0E026E016E0A36023288EFB0
:1010FA0008F0010E0C6E60EC01F08AEF08F0000EA9
:10110A000C6E8AEF08F0FF0E0C6E0150006E025052
:04111A00016E120050
:10111E000001F86BF96B800EFA6F000EFB6FFA513F
:10112E00FB111BE084DF83DF958E81DF80DF958CE2
:10113E009A9183BC04D09AA101D001D0FAD783AE84
:10114E0004D0FA51F813FB51F91371DF70DF04DF8D
:10115E00959CFB33FA33FB9FE2D7958E68DF67DFF2
:10116E00F651F71102E0EFDE959E61DF60DF958CA0
:10117E009A9183BC04D09AA101D001D0FAD757DF3F
:10118E0056DFEADE959C53DF52DFDDDE959EF8C01A
:04119E0000F012004B
:1011A200D8DE959E4ADF49DF958C00019A9183BC77
:1011B20004D09AA101D001D0FAD73FDF3EDF3DDF54
:1011C2003CDF3BDF3ADF39DF38DF958E36DF35DF54
:0211D200120009
:1011D400010E0001F96F000EFA6F800EF76F000E1A
:1011E400F86FF751F81123E027DF26DF25DF24DF2E
:1011F400B8DE959C21DF20DFF751F615006E000E56
:10120400F815016E0050011002E0958E02D0A0DEA8
:10121400959E12DF11DF958C9A9183BC04D09AA11C
:1012240001D001D0FAD7F833F733F89FDAD7F96B46
:10123400FA6B02DF01DF95DE959CFEDEFDDE958E06
:10124400FBDEFADEF9DEF8DE958C9A9183BC04D0DD
:101254009AA101D001D0FAD7F96BFA6BEDDEECDE7E
:1012640083BEF981E9DEE8DEE7DEE6DEE5DEE4DE24
:10127400E3DEE2DEE1DEE0DEDFDEDEDEDDDEDCDE7E
:10128400DBDEDADE6EDE959C63DE959EF9C000F04F
:02129400120046
:10129600F6C004F0F7C005F0F8C006F0F9C007F094
:1012A600006A016A026A036A0DEC05F0000ED8B006
:1012B600010E006E005205E0006A016A026A036AC6
:1012C6006DD0F6C001F1F7C002F1F8C003F1F9C024
:1012D60004F1FA0E0101056F000E066F52DD000ED5
:1012E600046E000E056E000E066E800E076E7AEC1A
:1012F60004F0000E046E000E056E000E066E7F0EE4
:10130600076E1AEC04F000C0F6F001C0F7F002C058
:10131600F8F003C0F9F0010E0001FA5F000EFB5B66
:1013260000C001F101C002F102C003F103C004F1E3
:10133600530E0101056F320E066F000E076F080E81
:10134600086F000E096F99DC00C0FCF001C0FDF0CB
:1013560002C0FEF003C0FFF0FCC0F6F0FDC0F7F0DF
:10136600FEC0F8F0FFC0F9F0FAC000F0FBC001F0D3
:1013760074EC05F0180E046E720E056E310E066ED4
:101386007E0E076E7AEC04F0FCC004F0FDC005F09A
:0E139600FEC006F0FFC007F06EEC01F0120082
:1013A400F250026EF29E0500FF6A0150FE6E00507C
:0813B400FD6E02BEF28E120074
:1013BC00046A056A066A076AF6C000F0F7C001F015
:1013CC00F8C002F0F9C003F03EDC010ED8A4000E08
:1013DC00006E005209E0000E006E000E016E000E51
:1013EC00026E7F0E036E00D1F6C004F0F7C005F05C
:1013FC00F8C006F0F9C007F0FC0E006ED40E016EBA
:10140C00320E026E850E036E0DEC05F0010ED8B097
:10141C00000E006E005209E0FF0E006EFF0E016E12
:10142C007F0E026EFF0E036EDFD04F0E046EAC0EFD
:10143C00056EAE0E066E850E076EF6C000F0F7C098
:10144C0001F0F8C002F0F9C003F00DEC05F0010E4C
:10145C00D8B0000E006E005205E0006A016A026A04
:10146C00036AC2D0046A056A066A076AF6C000F00D
:10147C00F7C001F0F8C002F0F9C003F00DEC05F074
:10148C00010ED8B0000E006E00C0FCF0005202E05D
:10149C000001F87FF6C000F0F7C001F0F8C002F0D0
:1014AC00F9C003F03B0E046EAA0E056E380E066EE4
:1014BC007F0E076E7AEC04F000C0F6F001C0F7F076
:1014CC0002C0F8F003C0F9F000C001F101C002F154
:1014DC0002C003F103C004F194EC05F0B0DD00C0D0
:1014EC00FAF001C0FBF074EC05F000C004F001C090
:1014FC0005F002C006F003C007F0F6C000F0F7C01C
:10150C0001F0F8C002F0F9C003F01AEC04F000C0CE
:10151C00F6F001C0F7F002C0F8F003C0F9F000C01B
:10152C0001F101C002F102C003F103C004F12B0E62
:10153C000101056F320E066F000E076F090E086F62
:10154C00000E096F40EC06F000C001F101C002F181
:10155C0002C003F103C004F1FAC005F1FBC006F1AF
:10156C0005DD00C0F6F001C0F7F002C0F8F003C0D2
:10157C00F9F00001FC5330E0FF0E046EFF0E056E17
:10158C007F0E066EFF0E076EF6C000F0F7C001F07E
:10159C00F8C002F0F9C003F029EC06F0010ED8A453
:1015AC00000E006E005205E0006A016A026A036ACE
:1015BC001BD0F6C004F0F7C005F0F8C006F0F9C077
:1015CC0007F0000E006E000E016E000E026E7F0E14
:1015DC00036EEDEC06F008D0F6C000F0F7C001F099
:0A15EC00F8C002F0F9C003F012008D
:1015F600046A056A066A076AF6C000F0F7C001F0D9
:10160600F8C002F0F9C003F00DEC05F0010ED8B0F9
:10161600000E006E00520EE0000E0001F619006E7C
:10162600000EF719016E800EF819026E000EF919F8
:10163600036E08D0F6C000F0F7C001F0F8C002F063
:06164600F9C003F01200E0
:10164C00958EF6DCF5DC958CF3DCF2DC7DDC959E7E
:0A165C00EFDCEEDC82DC959C12004E
:101666000050086E0150006E016A026A036A0B6A36
:101676000C6A960E036E0A6A00C001F008C000F0FC
:0A168600086A026A3EEC04F012004C
:101690009DC0E1FF9EC0E2FFE5C0E6FF9BC000F0F9
:0816A0009CC001F07FDE120086
:1016A800800E0001E619006E800E005C02E1000E5B
:1016B800E55D08E2E5510008006EE6C001F0000EA5
:0E16C800015604D0E5C000F0E6C001F01200AB
:1016D600BADFD00E0001F66F7ADDE5C0F6F077DDF1
:0A16E600E7C0F6F074DD5ADD1200D3
:1016F00028C000F029C001F02AC002F02BC003F07E
:021700001200D5
:10170200E5C0F6F0E6C0F7F0E7C0F8F0E8C0F9F09F
:1017120071DF00C0EEF001C0EFF002C0F0F003C0D4
:10172200F1F0046A056A066A076A29EC06F0010EFE
:10173200D8A4000E006E005205E0006A016A026A37
:10174200036AF9D0EEC004F0EFC005F0F0C006F075
:10175200F1C007F0000E006E000E016E000E026E68
:101762007F0E036E0DEC05F0010ED8B0000E006E78
:1017720000C0EDF000521AE0EEC004F0EFC005F038
:10178200F0C006F0F1C007F0000E006E000E016E10
:10179200000E026E7F0E036EEDEC06F000C0EEF05E
:1017A20001C0EFF002C0F0F003C0F1F0EEC000F0B3
:1017B200EFC001F0F0C002F0F1C003F0EEC004F09F
:1017C200EFC005F0F0C006F0F1C007F07AEC04F0CB
:1017D20000C0F2F001C0F3F002C0F4F003C0F5F073
:1017E20000C001F101C002F102C003F103C004F123
:1017F200770E0101056F320E066F000E076F050EA0
:10180200086F000E096F40EC06F0EEC004F0EFC066
:1018120005F0F0C006F0F1C007F07AEC04F000C069
:10182200EEF001C0EFF002C0F0F003C0F1F0F2C040
:1018320001F1F3C002F1F4C003F1F5C004F18F0E1F
:10184200056F320E066F000E076F040E086F000E52
:10185200096F40EC06F000C004F001C005F002C0C0
:1018620006F003C007F0EEC000F0EFC001F0F0C0D8
:1018720002F0F1C003F0EDEC06F000C0EEF001C0A2
:10188200EFF002C0F0F003C0F1F00001ED531AE0F6
:10189200EEC004F0EFC005F0F0C006F0F1C007F0B2
:1018A200DB0E006E0F0E016E490E026E7F0E036E8E
:1018B2001AEC04F000C0EEF001C0EFF002C0F0F04C
:1018C20003C0F1F0046A056A066A076AE5C000F01F
:1018D200E6C001F0E7C002F0E8C003F00DEC05F04D
:1018E200010ED8B0000E006E00520DE0000EEE198F
:1018F200E96F000EEF19EA6F800EF019EB6F000E20
:10190200F119EC6F08D0EEC0E9F0EFC0EAF0F0C0D8
:10191200EBF0F1C0ECF0E9C0EEF0EAC0EFF0EBC0A2
:10192200F0F0ECC0F1F0E9C000F0EAC001F0EBC069
:0819320002F0ECC003F012000A
:10193A000001F16B046A056A066A076AE9C000F0E9
:10194A00EAC001F0EBC002F0ECC003F029EC06F0AB
:10195A00010ED8A4000E006E005209E0000E006EBF
:10196A00000E016E000E026E7F0E036EA6D0046A90
:10197A00056A066A076AE5C000F0E6C001F0E7C03A
:10198A0002F0E8C003F029EC06F0010ED8A4000E1C
:10199A00006E005205E0006A016A026A036A8DD08D
:1019AA00046A056A066A076AE5C000F0E6C001F043
:1019BA00E7C002F0E8C003F00DEC05F0010ED8B064
:1019CA00000E006E00522DE0E9C000F0EAC001F0FE
:1019DA00EBC002F0ECC003F07EEC03F000C0EDF0C7
:1019EA0001C0EEF002C0EFF003C0F0F01DEC04F00D
:1019FA00E9C004F0EAC005F0EBC006F0ECC007F05D
:101A0A0029EC06F0000ED8A4010E006E005205E083
:101A1A00006A016A026A036A50D0010EED15F16F7D
:101A2A00E77FE5C0F6F0E6C0F7F0E7C0F8F0E8C0F7
:101A3A00F9F02CDC00C0E5F001C0E6F002C0E7F0E6
:101A4A0003C0E8F0E9C004F0EAC005F0EBC006F014
:101A5A00ECC007F07AEC04F000C0E5F001C0E6F053
:101A6A0002C0E7F003C0E8F000C0F6F001C0F7F0EA
:101A7A0002C0F8F003C0F9F09CDC00C0E5F001C038
:101A8A00E6F002C0E7F003C0E8F00001F1530DE010
:101A9A00000EE519006E000EE619016E800EE719B8
:101AAA00026E000EE819036E08D0E5C000F0E6C029
:0C1ABA0001F0E7C002F0E8C003F01200E9
:101AC600E5C004F0E6C005F0E7C006F0E8C007F0A0
:101AD600006A016A026A036A0DEC05F0000ED8B0CE
:101AE600010E006E005205E0006A016A026A036A8E
:101AF600F9D0E5C0E9F0E6C0EAF0E7C0EBF0E8C0EF
:101B0600ECF0000E046E000E056E000E066E7F0EE3
:101B1600076EE5C000F0E6C001F0E7C002F0E8C0DD
:101B260003F00DEC05F0010ED8B0000E006E005269
:101B36001AE0E9C004F0EAC005F0EBC006F0ECC01C
:101B460007F0000E006E000E016E000E026E7F0E94
:101B5600036EEDEC06F000C0E9F001C0EAF002C049
:101B6600EBF003C0ECF0E9C001F1EAC002F1EBC012
:101B760003F1ECC004F1F20E0101056F000E066FD1
:101B8600C4EC06F000C0E9F001C0EAF002C0EBF0D8
:101B960003C0ECF000C001F101C002F102C003F184
:101BA60003C004F1F2C005F1F3C006F106330533B4
:101BB600069F06BD068F06AF03D002E3054B062B34
:101BC600BCEC07F000C0E9F001C0EAF002C0EBF09F
:101BD60003C0ECF0000E046E000E056E000E066EDD
:101BE6007F0E076EE5C000F0E6C001F0E7C002F028
:101BF600E8C003F00DEC05F0010ED8B0000E006E43
:101C060000521AE0E9C004F0EAC005F0EBC006F0A5
:101C1600ECC007F0000E006E000E016E000E026EA4
:101C26007F0E036EEDEC06F000C0E9F001C0EAF0AD
:101C360002C0EBF003C0ECF0140E0001F16FE9C036
:101C460004F0EAC005F0EBC006F0ECC007F0E5C012
:101C560000F0E6C001F0E7C002F0E8C003F0EDECEA
:101C660006F0E9C004F0EAC005F0EBC006F0ECC0EF
:101C760007F06EEC01F0000E046E000E056E000E0D
:101C8600066E800E076EEDEC06F000C0EDF001C0AA
:101C9600EEF002C0EFF003C0F0F0E9C004F0EAC0D5
:101CA60005F0EBC006F0ECC007F029EC06F0010EDB
:101CB600D8A4000E006E005201E00CD0EDC0E9F091
:101CC600EEC0EAF0EFC0EBF0F0C0ECF00001F10777
:101CD600F153B5E1E9C000F0EAC001F0EBC002F053
:061CE600ECC003F0120047
:101CEC000001E66BE76BE86BE96BAADCD00EF66FD4
:101CFC00EAEC08F0E5C0F6F0EAEC08F0A1DCD10E55
:101D0C00F66FEAEC08F0010EF66F000EF76F8FEC31
:101D1C0008F000C0E6F0000EE76FF66BF76B8FEC87
:101D2C0008F000C0E8F0000EE96FD1EC08F0E6C056
:0E1D3C0001F0006AE8510012E9510112120094
:101D4A00800E006E800E0001DA19005C02E1D951A2
:101D5A00000804E2010E856F81860ED0800EDA1922
:101D6A00006E800E005C02E1000ED95D04E2FF0EF7
:101D7A00856F819601D0856BD9C0E5F0DAC0E6F0AF
:101D8A008EDC00C07DF001C07EF000C07FF001C093
:101D9A0080F080337F33809F80BD808F80AF03D0F7
:081DAA0002E37F4B802B1200C5
:101DB200958C958E00019A9183BC04D09AA101D092
:061DC20001D0FAD7120067
:101DC8000900F5CFE6FF0006FBE10106F9E1120084
:101DD8000001DC6BD9C0E9FFDAC0EAFFEECFDBF027
:101DE800DB51000A0EE0DBC0E5F04EDC0001DC2B25
:101DF800DC51D925E96E000EDA21EA6EEECFDBF070
:041E0800EFD71200FE
:101E0C007A0E00019B6F0D0E9C6F000E9D6F010EE4
:101E1C009E6F560EA36F260EA46F000EA56F000EBC
:101E2C00A66F180EAF6F250EB06F000EB16F000EBF
:101E3C00B26FFF0EAB6FFF0EAC6F000EAD6F000EEE
:101E4C00AE6FAC8A900EAB6E948E949C9EAA03D00F
:081E5C00AECF00F0FBD712002D
:101E6400DDC004F0DEC005F0DFC006F0E0C007F01E
:101E7400D9C000F0DAC001F0DBC002F0DCC003F02E
:101E84000DEC05F0010ED8B0000E006E005209E012
:101E9400DDC000F0DEC001F0DFC002F0E0C003F0FE
:101EA40029D0D9C004F0DAC005F0DBC006F0DCC0EC
:101EB40007F0E1C000F0E2C001F0E3C002F0E4C0CA
:101EC40003F00DEC05F0010ED8B0000E006E0052C8
:101ED40009E0E1C000F0E2C001F0E3C002F0E4C0B8
:101EE40003F008D0D9C000F0DAC001F0DBC002F082
:061EF400DCC003F0120047
:101EFA009C0E0C6ED70E0D6E0D2EFED70C2EFCD737
:021F0A001200C3
:101F0C0078EC0BF000C004F001C005F002C006F044
:101F1C0003C007F05350045E5450055A000E065A85
:101F2C00075A800E0718006E800E005C08E1000E48
:101F3C00065C05E1000E055C02E1030E045C01E2A7
:101F4C00E4D23B0E0001E56FCBDE00C0A7F001C070
:101F5C00A8F03D0EE56FC4DE00C098F001C099F00A
:101F6C003F0EE56FBDDE00C0A1F001C0A2F0430E34
:101F7C00E56FB6DE00C0D1F001C0D2F0450EE56FC2
:101F8C00AFDE00C0CFF001C0D0F0470EE56FA8DE89
:101F9C0000C0D3F001C0D4F098C000F099C001F09B
:101FAC0074EC05F0000E046E000E056E000E066E4D
:101FBC008D0E076EEDEC06F000C0DDF001C0DEF01A
:101FCC0002C0DFF003C0E0F0A7C000F0A8C001F031
:101FDC0074EC05F0000E046E000E056E000E066E1D
:101FEC008D0E076EEDEC06F000C0E5F001C0E6F0DA
:101FFC0002C0E7F003C0E8F0000E0001E96F000E2C
:10200C00EA6F000EEB6F800EEC6F91DC00C0D9F024
:10201C0001C0DAF002C0DBF003C0DCF0A1C000F0BC
:10202C00A2C001F074EC05F0000E046E000E056EFB
:10203C00000E066E8D0E076EEDEC06F000C0E5F09E
:10204C0001C0E6F002C0E7F003C0E8F0000E0001AA
:10205C00E96F000EEA6F000EEB6F800EEC6F67DC21
:10206C00D9C004F0DAC005F0DBC006F0DCC007F024
:10207C006EEC01F000C0E5F001C0E6F002C0E7F044
:10208C0003C0E8F01ADD00C004F001C005F002C086
:10209C0006F003C007F0DDC000F0DEC001F0DFC0C9
:1020AC0002F0E0C003F0EDEC06F000C0E5F001C07A
:1020BC00E6F002C0E7F003C0E8F081EC0BF0E10EB3
:1020CC00046E2E0E056E6D0E066E840E076E7AEC87
:1020DC0004F000C0BBF001C0BCF002C0BDF003C0F6
:1020EC00BEF0A7C000F0A8C001F074EC05F0000E23
:1020FC00046E000E056E000E066E8D0E076EEDEC76
:10210C0006F0000E046E000E056E800E066E7F0E3D
:10211C00076E7AEC04F000C0DDF001C0DEF002C006
:10212C00DFF003C0E0F098C000F099C001F074EC4F
:10213C0005F0000E046E000E056E000E066E8D0E80
:10214C00076EEDEC06F000C0E5F001C0E6F002C051
:10215C00E7F003C0E8F0000E0001E96F000EEA6F33
:10216C00000EEB6F800EEC6F9DEC0CF000C0D9F004
:10217C0001C0DAF002C0DBF003C0DCF0A1C000F05B
:10218C00A2C001F074EC05F0000E046E000E056E9A
:10219C00000E066E8D0E076EEDEC06F000C0E5F03D
:1021AC0001C0E6F002C0E7F003C0E8F0000E000149
:1021BC00E96F000EEA6F000EEB6F800EEC6F9DEC7A
:1021CC000CF0D9C004F0DAC005F0DBC006F0DCC0BE
:1021DC0007F06EEC01F000C0E5F001C0E6F002C0C3
:1021EC00E7F003C0E8F069DC00C004F001C005F0C2
:1021FC0002C006F003C007F0DDC000F0DEC001F045
:10220C00DFC002F0E0C003F0EDEC06F000C0E5F03A
:10221C0001C0E6F002C0E7F003C0E8F081EC0BF07F
:10222C00E10E046E2E0E056E6D0E066E840E076E9C
:10223C007AEC04F000C0B7F001C0B8F002C0B9F0FD
:10224C0003C0BAF0D1C000F0D2C001F074EC05F0BC
:10225C00BFC004F0C0C005F0C1C006F0C2C007F09A
:10226C006EEC01F0000E046E000E056E030E066E91
:10227C00860E076EEDEC06F000C0B3F001C0B4F0B2
:10228C0002C0B5F003C0B6F0CFC000F0D0C001F072
:10229C0074EC05F0C7C004F0C8C005F0C9C006F066
:1022AC00CAC007F06EEC01F0000E046E000E056E55
:1022BC00030E066E860E076EEDEC06F000C0CBF03A
:1022CC0001C0CCF002C0CDF003C0CEF0D3C000F002
:1022DC00D4C001F074EC05F094C004F095C005F086
:1022EC0096C006F097C007F06EEC01F0000E046E7D
:1022FC00000E056E030E066E860E076EEDEC06F0F4
:10230C0000C0C3F001C0C4F002C0C5F003C0C6F0E9
:10231C0078EC0BF000C0D9F001C0DAF002C0DBF0B1
:10232C0003C0DCF0D9C05DF0DAC05EF053500001A0
:10233C00D95D006E5450DA59016E33EC0BF06F0E10
:10234C00046E120E056E030E066E750E076E7AEC99
:10235C0004F000C0DDF001C0DEF002C0DFF003C00D
:10236C00E0F0DDC065F0DEC066F0DFC067F0E0C015
:10237C0068F0D9C053F0DAC054F0B3C000F0B4C068
:10238C0001F0B5C002F0B6C003F0DDC004F0DEC051
:10239C0005F0DFC006F0E0C007F07AEC04F061C095
:1023AC0004F062C005F063C006F064C007F06EEC88
:1023BC0001F0480E046EE10E056E7A0E066E7E0E6E
:1023CC00076E7AEC04F000C0D9F001C0DAF002C05C
:1023DC00DBF003C0DCF00A0E006ED70E016E230E8C
:1023EC00026E790E036EBBC004F0BCC005F0BDC01C
:1023FC0006F0BEC007F07AEC04F0D9C004F0DAC0E5
:10240C0005F0DBC006F0DCC007F06EEC01F000C09C
:10241C0061F001C062F002C063F003C064F0CBC095
:10242C0000F0CCC001F0CDC002F0CEC003F0DDC096
:10243C0004F0DEC005F0DFC006F0E0C007F07AEC77
:10244C0004F055C004F056C005F057C006F058C053
:10245C0007F06EEC01F0480E046EE10E056E7A0E7C
:10246C00066E7E0E076E7AEC04F000C0D9F001C047
:10247C00DAF002C0DBF003C0DCF00A0E006ED70EFF
:10248C00016E230E026E790E036EB7C004F0B8C055
:10249C0005F0B9C006F0BAC007F07AEC04F0D9C068
:1024AC0004F0DAC005F0DBC006F0DCC007F06EEC1F
:1024BC0001F000C055F001C056F002C057F003C047
:1024CC0058F0C3C000F0C4C001F0C5C002F0C6C0D3
:1024DC0003F0DDC004F0DEC005F0DFC006F0E0C0A4
:1024EC0007F07AEC04F059C004F05AC005F05BC058
:1024FC0006F05CC007F06EEC01F000C059F001C0B2
:0C250C005AF002C05BF003C05CF012004B
:0A251800000E9EBA010E006E1200C4
:10252200070E0B6E170E0C6E6A0E0D6E0D2EFED779
:102532000C2EFCD70B2EFAD700006B0E0001E56FB4
:10254200000EE66F800EE76F000EE86F6BEC0BF08B
:102552004E0E0C6EEB0E0D6E0D2EFED70C2EFCD712
:102562006B0EE56F000EE66FE76BE86B6BEC0BF042
:10257200190EE56F000EE66F070EE76F000EE86FAB
:102582006BEC0BF01A0EE56F000EE66FE76BE86B73
:102592006BEC0BF01B0EE56F000EE66FE76BE86B62
:1025A2006BEC0BF01C0EE56F000EE66FE76BE86B51
:1025B2006BEC0BF06A0EE56F000EE66FE76BE86BF3
:1025C2006BEC0BF06B0EE56F000EE66F010EE76F22
:1025D200000EE86F6BEC0BF09C0E0C6ED70E0D6EBE
:0A25E2000D2EFED70C2EFCD71200C0
:1025EC00800E006E800E0001DA19005C02E1D951F8
:1025FC00000804E2010E5F6E81840ED0800EDA19A1
:10260C00006E800E005C02E1000ED95D04E2FF0E4C
:10261C005F6E819401D05F6AD9C0E5F0DAC0E6F054
:10262C0054EC0BF000C06BF001C06CF000C069F012
:10263C0001C06AF06A3369336A9F6ABD6A8F6AAFF8
:0A264C0003D002E3694B6A2B120071
:10265600AECF01F0ABA202D0AB98AB8801C000F0C0
:02266600120060
:1026680052EC19F0D9EC0EF0B886040EB06EE10EFB
:10267800AF6EAC8406EC0FF02C0ED96F000EDA6F3B
:10268800ECEC0EF04ADF160ED96F000EDA6FECECA8
:102698000EF0D58CD59AD596D594D592D590D66A84
:1026A800F28AF294F28ED58ECD8ECD92CD9ACD98B7
:1026B800CD969F909D809E90D10ECF6E200ECE6EAF
:1026C800CD800E0EC16E93909392939493969398A7
:1026D800939A939C939E8188818A818C819E946A27
:1026E8008A6B8B6B800E8B19006E800E010A005C62
:1026F80002E12C0E8A5D07E205DC7DEC0FF000019B
:102708008A4B8B2BEFD778EC0BF000C03FF001C061
:1027180040F002C041F003C042F078EC0BF000C07A
:1027280004F001C005F002C006F003C007F03F50F6
:10273800045E4050055A4150065A4250075A800ECE
:102748000718006E800E005C08E1000E065C05E1CB
:10275800000E055C02E1040E045CD8A0F3EF18F04B
:1027680086EC0FF055C000F056C001F057C002F0DB
:1027780058C003F043C004F044C005F045C006F05B
:1027880046C007F06EEC01F04FC004F050C005F0F1
:1027980051C006F052C007F01AEC04F000C086F0F1
:1027A80001C087F002C088F003C089F090C004F02F
:1027B80091C005F092C006F093C007F0000E006EBD
:1027C800000E016E200E026E820E036E0DEC05F0F7
:1027D800010ED8B0000E006E005219E1000E046E12
:1027E800000E056EA00E066E820E076E90C000F0F9
:1027F80091C001F092C002F093C003F00DEC05F017
:10280800010ED8B0000E006E005201E124D090C035
:1028180000F091C001F092C002F093C003F0CD0E19
:10282800046ECC0E056E4C0E066E790E076E7AECB1
:1028380004F086C004F087C005F088C006F089C09F
:1028480007F06EEC01F000C086F001C087F002C00E
:1028580088F003C089F086C000F087C001F088C006
:1028680002F089C003F047C004F048C005F049C031
:1028780006F04AC007F07AEC04F08CC004F08DC072
:1028880005F08EC006F08FC007F06EEC01F000C0B6
:102898008CF001C08DF002C08EF003C08FF000C034
:1028A800D9F001C0DAF002C0DBF003C0DCF0000EA2
:1028B8000001DD6F000EDE6FC80EDF6F870EE06F60
:1028C800000EE16F000EE26F480EE36F870EE46FB3
:1028D80032EC0FF000C0D5F001C0D6F002C0D7F03E
:1028E80003C0D8F0D5C08CF0D6C08DF0D7C08EF01C
:1028F800D8C08FF04BC000F04CC001F04DC002F0C2
:102908004EC003F086C004F087C005F088C006F00A
:1029180089C007F07AEC04F0D5C004F0D6C005F001
:10292800D7C006F0D8C007F06EEC01F000C0D5F0B3
:1029380001C0D6F002C0D7F003C0D8F075C004F0CB
:1029480076C005F077C006F078C007F086C000F0C2
:1029580087C001F088C002F089C003F01AEC04F0C7
:102968003BC004F03CC005F03DC006F03EC007F097
:102978007AEC04F0D5C004F0D6C005F0D7C006F054
:10298800D8C007F06EEC01F000C090F001C091F0E3
:1029980002C092F003C093F086C075F087C076F04D
:1029A80088C077F089C078F000C004F001C005F055
:1029B80002C006F003C007F0000E006E000E016EA4
:1029C800A00E026E810E036E0DEC05F0010ED8B05C
:1029D800000E006E00521DE0000E046E000E056E23
:1029E800200E066E810E076E90C000F091C001F0B7
:1029F80092C002F093C003F00DEC05F0010ED8B0C0
:102A0800000E006E005205E00001906B916B926B16
:102A1800936B000190C0D9F091C0DAF092C0DBF05E
:102A280093C0DCF0000EDD6F000EDE6FC80EDF6FA6
:102A3800870EE06F000EE16F000EE26F480EE36F45
:102A4800870EE46F32EC0FF000C090F001C091F0F7
:102A580002C092F003C093F000C071F001C072F0A0
:102A680002C073F003C074F000C06DF001C06EF0D6
:102A780002C06FF003C070F04BDD0050010A03E1A3
:102A8800E6DD00C060F000016051460A65E1000E15
:102A9800046E000E056E780E066E820E076E4FC02D
:102AA80000F050C001F051C002F052C003F00DEC2C
:102AB80005F0010ED8B0000E006E00521AE04FC0AB
:102AC80000F050C001F051C002F052C003F0000EF7
:102AD800046E000E056E000E066E7E0E076E6EEC1E
:102AE80001F000C04FF001C050F002C051F003C027
:102AF80052F090C004F091C005F092C006F093C067
:102B080007F0000E006E000E016E7A0E026E860E41
:102B1800036E0DEC05F0010ED8B0000E006E0052E9
:102B28001AE0CD0E046ECC0E056E4C0E066E7A0EB3
:102B3800076E4FC000F050C001F051C002F052C003
:102B480003F01AEC04F000C04FF001C050F002C0CE
:102B580051F003C052F0E1D000016051420A65E132
:102B68004FC004F050C005F051C006F052C007F045
:102B7800000E006E000E016ED80E026E820E036EFD
:102B88000DEC05F0010ED8B0000E006E00521AE0F0
:102B9800000E046E000E056E000E066E7E0E076EA9
:102BA8004FC000F050C001F051C002F052C003F015
:102BB8001AEC04F000C04FF001C050F002C051F010
:102BC80003C052F0000E046E000E056EFA0E066E7B
:102BD800860E076E90C000F091C001F092C002F01E
:102BE80093C003F00DEC05F0010ED8B0000E006E96
:102BF80000521AE04FC000F050C001F051C002F07E
:102C080052C003F0CD0E046ECC0E056E4C0E066E4F
:102C18007A0E076E6EEC01F000C04FF001C050F064
:102C280002C051F003C052F078D0000160514C0A44
:102C380035E1000E046E000E056E700E066E840EF1
:102C4800076E71C000F072C001F073C002F074C06A
:102C580003F01AEC04F000C071F001C072F002C079
:102C680073F003C074F06DC000F06EC001F06FC067
:102C780002F070C003F0000E046E000E056E700EB8
:102C8800066E840E076E6EEC01F000C06DF001C098
:102C98006EF002C06FF003C070F03FD06051520A6E
:102CA80035E171C000F072C001F073C002F074C069
:102CB80003F0000E046E000E056E700E066E840E94
:102CC800076E6EEC01F000C071F001C072F002C036
:102CD80073F003C074F0000E046E000E056E700EE3
:102CE800066E840E076E6DC000F06EC001F06FC0F6
:102CF80002F070C003F01AEC04F000C06DF001C0DF
:102D08006EF002C06FF003C070F007D06051530A34
:102D180004E14F6A506A516A526A71C004F072C085
:102D280005F073C006F074C007F0006A016A026A11
:102D3800036A0DEC05F0010ED8B0000E006E0052CB
:102D480049E071C000F072C001F073C002F074C0B5
:102D580003F0000E046E000E056E100E066E820E55
:102D6800076E6EEC01F000C004F001C005F002C06F
:102D780006F003C007F0000E006E000E016E000E94
:102D8800026E7F0E036EEDEC06F0000E046EE00E90
:102D9800056E2B0E066E8B0E076E7AEC04F000C0E3
:102DA80004F001C005F002C006F003C007F0000EF1
:102DB800006E800E016E4A0E026E870E036E1AECCC
:102DC80004F000C071F001C072F002C073F003C0DB
:102DD80074F05CD0046A056A066A076A71C000F07C
:102DE80072C001F073C002F074C003F00DEC05F07E
:102DF800010ED8B0000E006E005248E0000E046EBE
:102E0800000E056E100E066E820E076E71C000F081
:102E180072C001F073C002F074C003F01AEC04F041
:102E280000C004F001C005F002C006F003C007F0BE
:102E3800000E006E000E016E000E026E7F0E036E15
:102E4800EDEC06F0000E046EE00E056E2B0E066E1D
:102E58008B0E076E7AEC04F000C004F001C005F098
:102E680002C006F003C007F0000E006E800E016E6F
:102E7800CA0E026E870E036E1AEC04F000C071F0E1
:102E880001C072F002C073F003C074F06DC004F0AA
:102E98006EC005F06FC006F070C007F0006A016AE6
:102EA800026A036A0DEC05F0010ED8B0000E006E40
:102EB800005249E06DC000F06EC001F06FC002F032
:102EC80070C003F0000E046E000E056E100E066E44
:102ED800820E076E6EEC01F000C004F001C005F030
:102EE80002C006F003C007F0000E006E000E016E6F
:102EF800000E026E7F0E036EEDEC06F0000E046EFF
:102F0800E00E056E2B0E066E8B0E076E7AEC04F043
:102F180000C004F001C005F002C006F003C007F0CD
:102F2800000E006E800E016E4A0E026E870E036E52
:102F38001AEC04F000C06DF001C06EF002C06FF032
:102F480003C070F05CD0046A056A066A076A6DC03F
:102F580000F06EC001F06FC002F070C003F00DEC1D
:102F680005F0010ED8B0000E006E005248E0000EC9
:102F7800046E000E056E100E066E820E076E6DC092
:102F880000F06EC001F06FC002F070C003F01AECE0
:102F980004F000C004F001C005F002C006F003C050
:102FA80007F0000E006E000E016E000E026E7F0E1E
:102FB800036EEDEC06F0000E046EE00E056E2B0EAF
:102FC800066E8B0E076E7AEC04F000C004F001C0A8
:102FD80005F002C006F003C007F0000E006E800E78
:102FE800016ECA0E026E870E036E1AEC04F000C062
:102FF8006DF001C06EF002C06FF003C070F071C0D8
:1030080004F072C005F073C006F074C007F0006ADF
:10301800016A026A036A0DEC05F0010ED8B0000ED1
:10302800006E00521BE071C004F072C005F073C05E
:1030380006F074C007F0000E006E000E016E480E18
:10304800026E870E036E1AEC04F000C079F001C01E
:103058007AF002C07BF003C07CF034D0046A056AC1
:10306800066A076A71C000F072C001F073C002F00E
:1030780074C003F00DEC05F0010ED8B0000E006E20
:1030880000521BE071C004F072C005F073C006F076
:1030980074C007F0000E006E000E016EC80E026EBE
:1030A800870E036E1AEC04F000C079F001C07AF0C4
:1030B80002C07BF003C07CF005D00001796B7A6B0D
:1030C8007B6B7C6B6DC004F06EC005F06FC006F0C2
:1030D80070C007F0006A016A026A036A0DEC05F025
:1030E800010ED8B0000E006E00521BE06DC004F057
:1030F8006EC005F06FC006F070C007F0000E006EDD
:10310800000E016E480E026E870E036E1AEC04F074
:1031180000C081F001C082F002C083F003C084F0D7
:1031280034D0046A056A066A076A6DC000F06EC08A
:1031380001F06FC002F070C003F00DEC05F0010E55
:10314800D8B0000E006E00521BE06DC004F06EC0D7
:1031580005F06FC006F070C007F0000E006E000E9C
:10316800016EC80E026E870E036E1AEC04F000C0E2
:1031780081F001C082F002C083F003C084F005D062
:103188000001816B826B836B846B81C000F082C00D
:1031980001F083C002F084C003F025EC08F000C001
:1031A800D9F001C0DAF0F6EC12F079C000F07AC07C
:1031B80001F07BC002F07CC003F025EC08F000C0F1
:1031C800D9F001C0DAF0A5EC0EF078EC0BF000C0F5
:1031D8003FF001C040F002C041F003C042F091EF5F
:0431E80013F0FFD70A
:1032A40010EE16F03F0E006E010E016EEC0EF66E7F
:0E32B400310EF76E000EF86EE4EC0EF0120014
:1031EC00496E6974204D505536303530204F4B0D9B
:0231FC000A00C7
:0431FE0000000000CD
:0F320200496E69742055415254204F4B0D0A00FC
:0432110000000000B9
:0432150000000000B5
:04321900000020820F
:04321D000000407FEE
:0432210000007082B7
:0432250000000000A5
:023229000000A3
:10322B000000007F1872317EF0FD757C4758637A81
:10323B0058951D7882C42E75A8782172EF93006F74
:08324B00A092276B465615689E
:10325300FFE65B5DC4FF7F7E80EFFF7D90E1297D0C
:10326300EC82F67C82AD2B7C0E3CC37B87D1137A38
:043273004178D37754
:10327700063C04847D9F6A845C900184604D3B8199
:0832870051EC477CDE8D9F76BF
:10328F00063C0484C0590B8574044484F99B4F8217
:04329F000000007FAC
:020000040030CA
:0E000000240E1F1EFF8381FF0FC00FE00F4074
:00000001FF
